{
	"data": {
		"bytecode": {
			"linkReferences": {},
			"object": "6080604052348015600e575f5ffd5b50611fc58061001c5f395ff3fe608060405234801561000f575f5ffd5b50600436106100a7575f3560e01c80639207891d1161006f5780639207891d1461014d578063942f56bd1461016b5780639e3190631461019b578063ac2f0074146101cb578063b384abef146101ff578063f9ded6461461021b576100a7565b80631750a3d0146100ab5780633d2f5bda146100c7578063649f89a5146100e357806374a9ced9146100ff5780637de142421461011b575b5f5ffd5b6100c560048036038101906100c09190611284565b61024b565b005b6100e160048036038101906100dc91906112de565b610455565b005b6100fd60048036038101906100f891906112de565b610681565b005b61011960048036038101906101149190611309565b610868565b005b61013560048036038101906101309190611350565b6109d6565b604051610144939291906113fd565b60405180910390f35b610155610a8d565b6040516101629190611439565b60405180910390f35b610185600480360381019061018091906114ac565b610a93565b6040516101929190611504565b60405180910390f35b6101b560048036038101906101b091906114ac565b610b47565b6040516101c29190611504565b60405180910390f35b6101e560048036038101906101e091906112de565b610b71565b6040516101f695949392919061159f565b60405180910390f35b61021960048036038101906102149190611350565b610c53565b005b610235600480360381019061023091906112de565b610f00565b6040516102429190611756565b60405180910390f35b815f8111801561025d57506001548111155b61029c576040517f08c379a0000000000000000000000000000000000000000000000000000000008152600401610293906117c0565b60405180910390fd5b823373ffffffffffffffffffffffffffffffffffffffff165f5f8381526020019081526020015f206001015f9054906101000a900473ffffffffffffffffffffffffffffffffffffffff1673ffffffffffffffffffffffffffffffffffffffff161461033d576040517f08c379a00000000000000000000000000000000000000000000000000000000081526004016103349061184e565b60405180910390fd5b5f5f5f8681526020019081526020015f2090505f60028111156103635761036261152c565b5b816003015f9054906101000a900460ff1660028111156103865761038561152c565b5b146103c6576040517f08c379a00000000000000000000000000000000000000000000000000000000081526004016103bd906118dc565b60405180910390fd5b806004015f8154809291906103da90611927565b91905055505f8160040154905060405180606001604052808281526020018681526020015f81525060025f8881526020019081526020015f205f8381526020019081526020015f205f820151815f0155602082015181600101908161043f9190611b6b565b5060408201518160020155905050505050505050565b805f8111801561046757506001548111155b6104a6576040517f08c379a000000000000000000000000000000000000000000000000000000000815260040161049d906117c0565b60405180910390fd5b813373ffffffffffffffffffffffffffffffffffffffff165f5f8381526020019081526020015f206001015f9054906101000a900473ffffffffffffffffffffffffffffffffffffffff1673ffffffffffffffffffffffffffffffffffffffff1614610547576040517f08c379a000000000000000000000000000000000000000000000000000000000815260040161053e9061184e565b60405180910390fd5b5f5f5f8581526020019081526020015f2090505f600281111561056d5761056c61152c565b5b816003015f9054906101000a900460ff1660028111156105905761058f61152c565b5b146105d0576040517f08c379a00000000000000000000000000000000000000000000000000000000081526004016105c790611c84565b60405180910390fd5b5f816004015411610616576040517f08c379a000000000000000000000000000000000000000000000000000000000815260040161060d90611d12565b60405180910390fd5b6001816003015f6101000a81548160ff0219169083600281111561063d5761063c61152c565b5b0217905550837ffeba5a751ca0c9a627f556d01e4b850b46017690a91e6d470160f2563441a5e060016040516106739190611d30565b60405180910390a250505050565b805f8111801561069357506001548111155b6106d2576040517f08c379a00000000000000000000000000000000000000000000000000000000081526004016106c9906117c0565b60405180910390fd5b813373ffffffffffffffffffffffffffffffffffffffff165f5f8381526020019081526020015f206001015f9054906101000a900473ffffffffffffffffffffffffffffffffffffffff1673ffffffffffffffffffffffffffffffffffffffff1614610773576040517f08c379a000000000000000000000000000000000000000000000000000000000815260040161076a9061184e565b60405180910390fd5b5f5f5f8581526020019081526020015f2090506001600281111561079a5761079961152c565b5b816003015f9054906101000a900460ff1660028111156107bd576107bc61152c565b5b146107fd576040517f08c379a00000000000000000000000000000000000000000000000000000000081526004016107f490611db9565b60405180910390fd5b6002816003015f6101000a81548160ff021916908360028111156108245761082361152c565b5b0217905550837ffeba5a751ca0c9a627f556d01e4b850b46017690a91e6d470160f2563441a5e0600260405161085a9190611d30565b60405180910390a250505050565b60015f81548092919061087a90611927565b91905055506040518060a0016040528060015481526020013373ffffffffffffffffffffffffffffffffffffffff1681526020018281526020015f60028111156108c7576108c661152c565b5b81526020015f8152505f5f60015481526020019081526020015f205f820151815f01556020820151816001015f6101000a81548173ffffffffffffffffffffffffffffffffffffffff021916908373ffffffffffffffffffffffffffffffffffffffff16021790555060408201518160020190816109459190611b6b565b506060820151816003015f6101000a81548160ff021916908360028111156109705761096f61152c565b5b0217905550608082015181600401559050503373ffffffffffffffffffffffffffffffffffffffff166001547f7cf84e937b660a86b8d03903abf94c2e2976b2273da8dfbef2d89b7ac560463e836040516109cb9190611dd7565b60405180910390a350565b6002602052815f5260405f20602052805f5260405f205f9150915050805f015490806001018054610a069061199b565b80601f0160208091040260200160405190810160405280929190818152602001828054610a329061199b565b8015610a7d5780601f10610a5457610100808354040283529160200191610a7d565b820191905f5260205f20905b815481529060010190602001808311610a6057829003601f168201915b5050505050908060020154905083565b60015481565b5f825f81118015610aa657506001548111155b610ae5576040517f08c379a0000000000000000000000000000000000000000000000000000000008152600401610adc906117c0565b60405180910390fd5b60035f8581526020019081526020015f205f8473ffffffffffffffffffffffffffffffffffffffff1673ffffffffffffffffffffffffffffffffffffffff1681526020019081526020015f205f9054906101000a900460ff1691505092915050565b6003602052815f5260405f20602052805f5260405f205f915091509054906101000a900460ff1681565b5f602052805f5260405f205f91509050805f015490806001015f9054906101000a900473ffffffffffffffffffffffffffffffffffffffff1690806002018054610bba9061199b565b80601f0160208091040260200160405190810160405280929190818152602001828054610be69061199b565b8015610c315780601f10610c0857610100808354040283529160200191610c31565b820191905f5260205f20905b815481529060010190602001808311610c1457829003601f168201915b505050505090806003015f9054906101000a900460ff16908060040154905085565b815f81118015610c6557506001548111155b610ca4576040517f08c379a0000000000000000000000000000000000000000000000000000000008152600401610c9b906117c0565b60405180910390fd5b5f5f5f8581526020019081526020015f20905060016002811115610ccb57610cca61152c565b5b816003015f9054906101000a900460ff166002811115610cee57610ced61152c565b5b14610d2e576040517f08c379a0000000000000000000000000000000000000000000000000000000008152600401610d2590611e41565b60405180910390fd5b60035f8581526020019081526020015f205f3373ffffffffffffffffffffffffffffffffffffffff1673ffffffffffffffffffffffffffffffffffffffff1681526020019081526020015f205f9054906101000a900460ff1615610dc7576040517f08c379a0000000000000000000000000000000000000000000000000000000008152600401610dbe90611ea9565b60405180910390fd5b5f83118015610dda575080600401548311155b610e19576040517f08c379a0000000000000000000000000000000000000000000000000000000008152600401610e1090611f11565b60405180910390fd5b60025f8581526020019081526020015f205f8481526020019081526020015f206002015f815480929190610e4c90611927565b9190505550600160035f8681526020019081526020015f205f3373ffffffffffffffffffffffffffffffffffffffff1673ffffffffffffffffffffffffffffffffffffffff1681526020019081526020015f205f6101000a81548160ff0219169083151502179055503373ffffffffffffffffffffffffffffffffffffffff1683857fd91ecafccf238642dccd41161308b3eebe62a12bc5819daf5164780c221ec95b60405160405180910390a450505050565b6060815f81118015610f1457506001548111155b610f53576040517f08c379a0000000000000000000000000000000000000000000000000000000008152600401610f4a906117c0565b60405180910390fd5b5f5f5f8581526020019081526020015f206004015490505f8167ffffffffffffffff811115610f8557610f84611160565b5b604051908082528060200260200182016040528015610fbe57816020015b610fab6110e5565b815260200190600190039081610fa35790505b5090505f600190505b8281116110d95760025f8781526020019081526020015f205f8281526020019081526020015f206040518060600160405290815f82015481526020016001820180546110129061199b565b80601f016020809104026020016040519081016040528092919081815260200182805461103e9061199b565b80156110895780601f1061106057610100808354040283529160200191611089565b820191905f5260205f20905b81548152906001019060200180831161106c57829003601f168201915b50505050508152602001600282015481525050826001836110aa9190611f2f565b815181106110bb576110ba611f62565b5b602002602001018190525080806110d190611927565b915050610fc7565b50809350505050919050565b60405180606001604052805f8152602001606081526020015f81525090565b5f604051905090565b5f5ffd5b5f5ffd5b5f819050919050565b61112781611115565b8114611131575f5ffd5b50565b5f813590506111428161111e565b92915050565b5f5ffd5b5f5ffd5b5f601f19601f8301169050919050565b7f4e487b71000000000000000000000000000000000000000000000000000000005f52604160045260245ffd5b61119682611150565b810181811067ffffffffffffffff821117156111b5576111b4611160565b5b80604052505050565b5f6111c7611104565b90506111d3828261118d565b919050565b5f67ffffffffffffffff8211156111f2576111f1611160565b5b6111fb82611150565b9050602081019050919050565b828183375f83830152505050565b5f611228611223846111d8565b6111be565b9050828152602081018484840111156112445761124361114c565b5b61124f848285611208565b509392505050565b5f82601f83011261126b5761126a611148565b5b813561127b848260208601611216565b91505092915050565b5f5f6040838503121561129a5761129961110d565b5b5f6112a785828601611134565b925050602083013567ffffffffffffffff8111156112c8576112c7611111565b5b6112d485828601611257565b9150509250929050565b5f602082840312156112f3576112f261110d565b5b5f61130084828501611134565b91505092915050565b5f6020828403121561131e5761131d61110d565b5b5f82013567ffffffffffffffff81111561133b5761133a611111565b5b61134784828501611257565b91505092915050565b5f5f604083850312156113665761136561110d565b5b5f61137385828601611134565b925050602061138485828601611134565b9150509250929050565b61139781611115565b82525050565b5f81519050919050565b5f82825260208201905092915050565b8281835e5f83830152505050565b5f6113cf8261139d565b6113d981856113a7565b93506113e98185602086016113b7565b6113f281611150565b840191505092915050565b5f6060820190506114105f83018661138e565b818103602083015261142281856113c5565b9050611431604083018461138e565b949350505050565b5f60208201905061144c5f83018461138e565b92915050565b5f73ffffffffffffffffffffffffffffffffffffffff82169050919050565b5f61147b82611452565b9050919050565b61148b81611471565b8114611495575f5ffd5b50565b5f813590506114a681611482565b92915050565b5f5f604083850312156114c2576114c161110d565b5b5f6114cf85828601611134565b92505060206114e085828601611498565b9150509250929050565b5f8115159050919050565b6114fe816114ea565b82525050565b5f6020820190506115175f8301846114f5565b92915050565b61152681611471565b82525050565b7f4e487b71000000000000000000000000000000000000000000000000000000005f52602160045260245ffd5b6003811061156a5761156961152c565b5b50565b5f81905061157a82611559565b919050565b5f6115898261156d565b9050919050565b6115998161157f565b82525050565b5f60a0820190506115b25f83018861138e565b6115bf602083018761151d565b81810360408301526115d181866113c5565b90506115e06060830185611590565b6115ed608083018461138e565b9695505050505050565b5f81519050919050565b5f82825260208201905092915050565b5f819050602082019050919050565b61162981611115565b82525050565b5f82825260208201905092915050565b5f6116498261139d565b611653818561162f565b93506116638185602086016113b7565b61166c81611150565b840191505092915050565b5f606083015f83015161168c5f860182611620565b50602083015184820360208601526116a4828261163f565b91505060408301516116b96040860182611620565b508091505092915050565b5f6116cf8383611677565b905092915050565b5f602082019050919050565b5f6116ed826115f7565b6116f78185611601565b93508360208202850161170985611611565b805f5b85811015611744578484038952815161172585826116c4565b9450611730836116d7565b925060208a0199505060018101905061170c565b50829750879550505050505092915050565b5f6020820190508181035f83015261176e81846116e3565b905092915050565b7f566f746163616f20696e6578697374656e74652e0000000000000000000000005f82015250565b5f6117aa6014836113a7565b91506117b582611776565b602082019050919050565b5f6020820190508181035f8301526117d78161179e565b9050919050565b7f4170656e6173206f2063726961646f7220646120766f746163616f20706f64655f8201527f206368616d617220657374612066756e63616f2e000000000000000000000000602082015250565b5f6118386034836113a7565b9150611843826117de565b604082019050919050565b5f6020820190508181035f8301526118658161182c565b9050919050565b7f4120766f746163616f206a6120636f6d65636f75206f75207465726d696e6f755f8201527f2e00000000000000000000000000000000000000000000000000000000000000602082015250565b5f6118c66021836113a7565b91506118d18261186c565b604082019050919050565b5f6020820190508181035f8301526118f3816118ba565b9050919050565b7f4e487b71000000000000000000000000000000000000000000000000000000005f52601160045260245ffd5b5f61193182611115565b91507fffffffffffffffffffffffffffffffffffffffffffffffffffffffffffffffff8203611963576119626118fa565b5b600182019050919050565b7f4e487b71000000000000000000000000000000000000000000000000000000005f52602260045260245ffd5b5f60028204905060018216806119b257607f821691505b6020821081036119c5576119c461196e565b5b50919050565b5f819050815f5260205f209050919050565b5f6020601f8301049050919050565b5f82821b905092915050565b5f60088302611a277fffffffffffffffffffffffffffffffffffffffffffffffffffffffffffffffff826119ec565b611a3186836119ec565b95508019841693508086168417925050509392505050565b5f819050919050565b5f611a6c611a67611a6284611115565b611a49565b611115565b9050919050565b5f819050919050565b611a8583611a52565b611a99611a9182611a73565b8484546119f8565b825550505050565b5f5f905090565b611ab0611aa1565b611abb818484611a7c565b505050565b5b81811015611ade57611ad35f82611aa8565b600181019050611ac1565b5050565b601f821115611b2357611af4816119cb565b611afd846119dd565b81016020851015611b0c578190505b611b20611b18856119dd565b830182611ac0565b50505b505050565b5f82821c905092915050565b5f611b435f1984600802611b28565b1980831691505092915050565b5f611b5b8383611b34565b9150826002028217905092915050565b611b748261139d565b67ffffffffffffffff811115611b8d57611b8c611160565b5b611b97825461199b565b611ba2828285611ae2565b5f60209050601f831160018114611bd3575f8415611bc1578287015190505b611bcb8582611b50565b865550611c32565b601f198416611be1866119cb565b5f5b82811015611c0857848901518255600182019150602085019450602081019050611be3565b86831015611c255784890151611c21601f891682611b34565b8355505b6001600288020188555050505b505050505050565b7f4120766f746163616f206a6120666f6920696e6963696164612e0000000000005f82015250565b5f611c6e601a836113a7565b9150611c7982611c3a565b602082019050919050565b5f6020820190508181035f830152611c9b81611c62565b9050919050565b7f4120766f746163616f20646576652074657220616f206d656e6f7320756d20635f8201527f616e64696461746f2e0000000000000000000000000000000000000000000000602082015250565b5f611cfc6029836113a7565b9150611d0782611ca2565b604082019050919050565b5f6020820190508181035f830152611d2981611cf0565b9050919050565b5f602082019050611d435f830184611590565b92915050565b7f4120766f746163616f206e616f206573746120616265727461207061726120735f8201527f657220656e636572726164612e00000000000000000000000000000000000000602082015250565b5f611da3602d836113a7565b9150611dae82611d49565b604082019050919050565b5f6020820190508181035f830152611dd081611d97565b9050919050565b5f6020820190508181035f830152611def81846113c5565b905092915050565b7f4573746120766f746163616f206e616f2065737461206162657274612e0000005f82015250565b5f611e2b601d836113a7565b9150611e3682611df7565b602082019050919050565b5f6020820190508181035f830152611e5881611e1f565b9050919050565b7f566f6365206a6120766f746f75206e6573746120766f746163616f2e000000005f82015250565b5f611e93601c836113a7565b9150611e9e82611e5f565b602082019050919050565b5f6020820190508181035f830152611ec081611e87565b9050919050565b7f43616e64696461746f20696e76616c69646f2e000000000000000000000000005f82015250565b5f611efb6013836113a7565b9150611f0682611ec7565b602082019050919050565b5f6020820190508181035f830152611f2881611eef565b9050919050565b5f611f3982611115565b9150611f4483611115565b9250828203905081811115611f5c57611f5b6118fa565b5b92915050565b7f4e487b71000000000000000000000000000000000000000000000000000000005f52603260045260245ffdfea2646970667358221220bb566c39a722a29e7d0df050bcc7f8e5c1b859a2507eed599827aa0b4143514d64736f6c634300081e0033",
			"opcodes": "PUSH1 0x80 PUSH1 0x40 MSTORE CALLVALUE DUP1 ISZERO PUSH1 0xE JUMPI PUSH0 PUSH0 REVERT JUMPDEST POP PUSH2 0x1FC5 DUP1 PUSH2 0x1C PUSH0 CODECOPY PUSH0 RETURN INVALID PUSH1 0x80 PUSH1 0x40 MSTORE CALLVALUE DUP1 ISZERO PUSH2 0xF JUMPI PUSH0 PUSH0 REVERT JUMPDEST POP PUSH1 0x4 CALLDATASIZE LT PUSH2 0xA7 JUMPI PUSH0 CALLDATALOAD PUSH1 0xE0 SHR DUP1 PUSH4 0x9207891D GT PUSH2 0x6F JUMPI DUP1 PUSH4 0x9207891D EQ PUSH2 0x14D JUMPI DUP1 PUSH4 0x942F56BD EQ PUSH2 0x16B JUMPI DUP1 PUSH4 0x9E319063 EQ PUSH2 0x19B JUMPI DUP1 PUSH4 0xAC2F0074 EQ PUSH2 0x1CB JUMPI DUP1 PUSH4 0xB384ABEF EQ PUSH2 0x1FF JUMPI DUP1 PUSH4 0xF9DED646 EQ PUSH2 0x21B JUMPI PUSH2 0xA7 JUMP JUMPDEST DUP1 PUSH4 0x1750A3D0 EQ PUSH2 0xAB JUMPI DUP1 PUSH4 0x3D2F5BDA EQ PUSH2 0xC7 JUMPI DUP1 PUSH4 0x649F89A5 EQ PUSH2 0xE3 JUMPI DUP1 PUSH4 0x74A9CED9 EQ PUSH2 0xFF JUMPI DUP1 PUSH4 0x7DE14242 EQ PUSH2 0x11B JUMPI JUMPDEST PUSH0 PUSH0 REVERT JUMPDEST PUSH2 0xC5 PUSH1 0x4 DUP1 CALLDATASIZE SUB DUP2 ADD SWAP1 PUSH2 0xC0 SWAP2 SWAP1 PUSH2 0x1284 JUMP JUMPDEST PUSH2 0x24B JUMP JUMPDEST STOP JUMPDEST PUSH2 0xE1 PUSH1 0x4 DUP1 CALLDATASIZE SUB DUP2 ADD SWAP1 PUSH2 0xDC SWAP2 SWAP1 PUSH2 0x12DE JUMP JUMPDEST PUSH2 0x455 JUMP JUMPDEST STOP JUMPDEST PUSH2 0xFD PUSH1 0x4 DUP1 CALLDATASIZE SUB DUP2 ADD SWAP1 PUSH2 0xF8 SWAP2 SWAP1 PUSH2 0x12DE JUMP JUMPDEST PUSH2 0x681 JUMP JUMPDEST STOP JUMPDEST PUSH2 0x119 PUSH1 0x4 DUP1 CALLDATASIZE SUB DUP2 ADD SWAP1 PUSH2 0x114 SWAP2 SWAP1 PUSH2 0x1309 JUMP JUMPDEST PUSH2 0x868 JUMP JUMPDEST STOP JUMPDEST PUSH2 0x135 PUSH1 0x4 DUP1 CALLDATASIZE SUB DUP2 ADD SWAP1 PUSH2 0x130 SWAP2 SWAP1 PUSH2 0x1350 JUMP JUMPDEST PUSH2 0x9D6 JUMP JUMPDEST PUSH1 0x40 MLOAD PUSH2 0x144 SWAP4 SWAP3 SWAP2 SWAP1 PUSH2 0x13FD JUMP JUMPDEST PUSH1 0x40 MLOAD DUP1 SWAP2 SUB SWAP1 RETURN JUMPDEST PUSH2 0x155 PUSH2 0xA8D JUMP JUMPDEST PUSH1 0x40 MLOAD PUSH2 0x162 SWAP2 SWAP1 PUSH2 0x1439 JUMP JUMPDEST PUSH1 0x40 MLOAD DUP1 SWAP2 SUB SWAP1 RETURN JUMPDEST PUSH2 0x185 PUSH1 0x4 DUP1 CALLDATASIZE SUB DUP2 ADD SWAP1 PUSH2 0x180 SWAP2 SWAP1 PUSH2 0x14AC JUMP JUMPDEST PUSH2 0xA93 JUMP JUMPDEST PUSH1 0x40 MLOAD PUSH2 0x192 SWAP2 SWAP1 PUSH2 0x1504 JUMP JUMPDEST PUSH1 0x40 MLOAD DUP1 SWAP2 SUB SWAP1 RETURN JUMPDEST PUSH2 0x1B5 PUSH1 0x4 DUP1 CALLDATASIZE SUB DUP2 ADD SWAP1 PUSH2 0x1B0 SWAP2 SWAP1 PUSH2 0x14AC JUMP JUMPDEST PUSH2 0xB47 JUMP JUMPDEST PUSH1 0x40 MLOAD PUSH2 0x1C2 SWAP2 SWAP1 PUSH2 0x1504 JUMP JUMPDEST PUSH1 0x40 MLOAD DUP1 SWAP2 SUB SWAP1 RETURN JUMPDEST PUSH2 0x1E5 PUSH1 0x4 DUP1 CALLDATASIZE SUB DUP2 ADD SWAP1 PUSH2 0x1E0 SWAP2 SWAP1 PUSH2 0x12DE JUMP JUMPDEST PUSH2 0xB71 JUMP JUMPDEST PUSH1 0x40 MLOAD PUSH2 0x1F6 SWAP6 SWAP5 SWAP4 SWAP3 SWAP2 SWAP1 PUSH2 0x159F JUMP JUMPDEST PUSH1 0x40 MLOAD DUP1 SWAP2 SUB SWAP1 RETURN JUMPDEST PUSH2 0x219 PUSH1 0x4 DUP1 CALLDATASIZE SUB DUP2 ADD SWAP1 PUSH2 0x214 SWAP2 SWAP1 PUSH2 0x1350 JUMP JUMPDEST PUSH2 0xC53 JUMP JUMPDEST STOP JUMPDEST PUSH2 0x235 PUSH1 0x4 DUP1 CALLDATASIZE SUB DUP2 ADD SWAP1 PUSH2 0x230 SWAP2 SWAP1 PUSH2 0x12DE JUMP JUMPDEST PUSH2 0xF00 JUMP JUMPDEST PUSH1 0x40 MLOAD PUSH2 0x242 SWAP2 SWAP1 PUSH2 0x1756 JUMP JUMPDEST PUSH1 0x40 MLOAD DUP1 SWAP2 SUB SWAP1 RETURN JUMPDEST DUP2 PUSH0 DUP2 GT DUP1 ISZERO PUSH2 0x25D JUMPI POP PUSH1 0x1 SLOAD DUP2 GT ISZERO JUMPDEST PUSH2 0x29C JUMPI PUSH1 0x40 MLOAD PUSH32 0x8C379A000000000000000000000000000000000000000000000000000000000 DUP2 MSTORE PUSH1 0x4 ADD PUSH2 0x293 SWAP1 PUSH2 0x17C0 JUMP JUMPDEST PUSH1 0x40 MLOAD DUP1 SWAP2 SUB SWAP1 REVERT JUMPDEST DUP3 CALLER PUSH20 0xFFFFFFFFFFFFFFFFFFFFFFFFFFFFFFFFFFFFFFFF AND PUSH0 PUSH0 DUP4 DUP2 MSTORE PUSH1 0x20 ADD SWAP1 DUP2 MSTORE PUSH1 0x20 ADD PUSH0 KECCAK256 PUSH1 0x1 ADD PUSH0 SWAP1 SLOAD SWAP1 PUSH2 0x100 EXP SWAP1 DIV PUSH20 0xFFFFFFFFFFFFFFFFFFFFFFFFFFFFFFFFFFFFFFFF AND PUSH20 0xFFFFFFFFFFFFFFFFFFFFFFFFFFFFFFFFFFFFFFFF AND EQ PUSH2 0x33D JUMPI PUSH1 0x40 MLOAD PUSH32 0x8C379A000000000000000000000000000000000000000000000000000000000 DUP2 MSTORE PUSH1 0x4 ADD PUSH2 0x334 SWAP1 PUSH2 0x184E JUMP JUMPDEST PUSH1 0x40 MLOAD DUP1 SWAP2 SUB SWAP1 REVERT JUMPDEST PUSH0 PUSH0 PUSH0 DUP7 DUP2 MSTORE PUSH1 0x20 ADD SWAP1 DUP2 MSTORE PUSH1 0x20 ADD PUSH0 KECCAK256 SWAP1 POP PUSH0 PUSH1 0x2 DUP2 GT ISZERO PUSH2 0x363 JUMPI PUSH2 0x362 PUSH2 0x152C JUMP JUMPDEST JUMPDEST DUP2 PUSH1 0x3 ADD PUSH0 SWAP1 SLOAD SWAP1 PUSH2 0x100 EXP SWAP1 DIV PUSH1 0xFF AND PUSH1 0x2 DUP2 GT ISZERO PUSH2 0x386 JUMPI PUSH2 0x385 PUSH2 0x152C JUMP JUMPDEST JUMPDEST EQ PUSH2 0x3C6 JUMPI PUSH1 0x40 MLOAD PUSH32 0x8C379A000000000000000000000000000000000000000000000000000000000 DUP2 MSTORE PUSH1 0x4 ADD PUSH2 0x3BD SWAP1 PUSH2 0x18DC JUMP JUMPDEST PUSH1 0x40 MLOAD DUP1 SWAP2 SUB SWAP1 REVERT JUMPDEST DUP1 PUSH1 0x4 ADD PUSH0 DUP2 SLOAD DUP1 SWAP3 SWAP2 SWAP1 PUSH2 0x3DA SWAP1 PUSH2 0x1927 JUMP JUMPDEST SWAP2 SWAP1 POP SSTORE POP PUSH0 DUP2 PUSH1 0x4 ADD SLOAD SWAP1 POP PUSH1 0x40 MLOAD DUP1 PUSH1 0x60 ADD PUSH1 0x40 MSTORE DUP1 DUP3 DUP2 MSTORE PUSH1 0x20 ADD DUP7 DUP2 MSTORE PUSH1 0x20 ADD PUSH0 DUP2 MSTORE POP PUSH1 0x2 PUSH0 DUP9 DUP2 MSTORE PUSH1 0x20 ADD SWAP1 DUP2 MSTORE PUSH1 0x20 ADD PUSH0 KECCAK256 PUSH0 DUP4 DUP2 MSTORE PUSH1 0x20 ADD SWAP1 DUP2 MSTORE PUSH1 0x20 ADD PUSH0 KECCAK256 PUSH0 DUP3 ADD MLOAD DUP2 PUSH0 ADD SSTORE PUSH1 0x20 DUP3 ADD MLOAD DUP2 PUSH1 0x1 ADD SWAP1 DUP2 PUSH2 0x43F SWAP2 SWAP1 PUSH2 0x1B6B JUMP JUMPDEST POP PUSH1 0x40 DUP3 ADD MLOAD DUP2 PUSH1 0x2 ADD SSTORE SWAP1 POP POP POP POP POP POP POP POP JUMP JUMPDEST DUP1 PUSH0 DUP2 GT DUP1 ISZERO PUSH2 0x467 JUMPI POP PUSH1 0x1 SLOAD DUP2 GT ISZERO JUMPDEST PUSH2 0x4A6 JUMPI PUSH1 0x40 MLOAD PUSH32 0x8C379A000000000000000000000000000000000000000000000000000000000 DUP2 MSTORE PUSH1 0x4 ADD PUSH2 0x49D SWAP1 PUSH2 0x17C0 JUMP JUMPDEST PUSH1 0x40 MLOAD DUP1 SWAP2 SUB SWAP1 REVERT JUMPDEST DUP2 CALLER PUSH20 0xFFFFFFFFFFFFFFFFFFFFFFFFFFFFFFFFFFFFFFFF AND PUSH0 PUSH0 DUP4 DUP2 MSTORE PUSH1 0x20 ADD SWAP1 DUP2 MSTORE PUSH1 0x20 ADD PUSH0 KECCAK256 PUSH1 0x1 ADD PUSH0 SWAP1 SLOAD SWAP1 PUSH2 0x100 EXP SWAP1 DIV PUSH20 0xFFFFFFFFFFFFFFFFFFFFFFFFFFFFFFFFFFFFFFFF AND PUSH20 0xFFFFFFFFFFFFFFFFFFFFFFFFFFFFFFFFFFFFFFFF AND EQ PUSH2 0x547 JUMPI PUSH1 0x40 MLOAD PUSH32 0x8C379A000000000000000000000000000000000000000000000000000000000 DUP2 MSTORE PUSH1 0x4 ADD PUSH2 0x53E SWAP1 PUSH2 0x184E JUMP JUMPDEST PUSH1 0x40 MLOAD DUP1 SWAP2 SUB SWAP1 REVERT JUMPDEST PUSH0 PUSH0 PUSH0 DUP6 DUP2 MSTORE PUSH1 0x20 ADD SWAP1 DUP2 MSTORE PUSH1 0x20 ADD PUSH0 KECCAK256 SWAP1 POP PUSH0 PUSH1 0x2 DUP2 GT ISZERO PUSH2 0x56D JUMPI PUSH2 0x56C PUSH2 0x152C JUMP JUMPDEST JUMPDEST DUP2 PUSH1 0x3 ADD PUSH0 SWAP1 SLOAD SWAP1 PUSH2 0x100 EXP SWAP1 DIV PUSH1 0xFF AND PUSH1 0x2 DUP2 GT ISZERO PUSH2 0x590 JUMPI PUSH2 0x58F PUSH2 0x152C JUMP JUMPDEST JUMPDEST EQ PUSH2 0x5D0 JUMPI PUSH1 0x40 MLOAD PUSH32 0x8C379A000000000000000000000000000000000000000000000000000000000 DUP2 MSTORE PUSH1 0x4 ADD PUSH2 0x5C7 SWAP1 PUSH2 0x1C84 JUMP JUMPDEST PUSH1 0x40 MLOAD DUP1 SWAP2 SUB SWAP1 REVERT JUMPDEST PUSH0 DUP2 PUSH1 0x4 ADD SLOAD GT PUSH2 0x616 JUMPI PUSH1 0x40 MLOAD PUSH32 0x8C379A000000000000000000000000000000000000000000000000000000000 DUP2 MSTORE PUSH1 0x4 ADD PUSH2 0x60D SWAP1 PUSH2 0x1D12 JUMP JUMPDEST PUSH1 0x40 MLOAD DUP1 SWAP2 SUB SWAP1 REVERT JUMPDEST PUSH1 0x1 DUP2 PUSH1 0x3 ADD PUSH0 PUSH2 0x100 EXP DUP2 SLOAD DUP2 PUSH1 0xFF MUL NOT AND SWAP1 DUP4 PUSH1 0x2 DUP2 GT ISZERO PUSH2 0x63D JUMPI PUSH2 0x63C PUSH2 0x152C JUMP JUMPDEST JUMPDEST MUL OR SWAP1 SSTORE POP DUP4 PUSH32 0xFEBA5A751CA0C9A627F556D01E4B850B46017690A91E6D470160F2563441A5E0 PUSH1 0x1 PUSH1 0x40 MLOAD PUSH2 0x673 SWAP2 SWAP1 PUSH2 0x1D30 JUMP JUMPDEST PUSH1 0x40 MLOAD DUP1 SWAP2 SUB SWAP1 LOG2 POP POP POP POP JUMP JUMPDEST DUP1 PUSH0 DUP2 GT DUP1 ISZERO PUSH2 0x693 JUMPI POP PUSH1 0x1 SLOAD DUP2 GT ISZERO JUMPDEST PUSH2 0x6D2 JUMPI PUSH1 0x40 MLOAD PUSH32 0x8C379A000000000000000000000000000000000000000000000000000000000 DUP2 MSTORE PUSH1 0x4 ADD PUSH2 0x6C9 SWAP1 PUSH2 0x17C0 JUMP JUMPDEST PUSH1 0x40 MLOAD DUP1 SWAP2 SUB SWAP1 REVERT JUMPDEST DUP2 CALLER PUSH20 0xFFFFFFFFFFFFFFFFFFFFFFFFFFFFFFFFFFFFFFFF AND PUSH0 PUSH0 DUP4 DUP2 MSTORE PUSH1 0x20 ADD SWAP1 DUP2 MSTORE PUSH1 0x20 ADD PUSH0 KECCAK256 PUSH1 0x1 ADD PUSH0 SWAP1 SLOAD SWAP1 PUSH2 0x100 EXP SWAP1 DIV PUSH20 0xFFFFFFFFFFFFFFFFFFFFFFFFFFFFFFFFFFFFFFFF AND PUSH20 0xFFFFFFFFFFFFFFFFFFFFFFFFFFFFFFFFFFFFFFFF AND EQ PUSH2 0x773 JUMPI PUSH1 0x40 MLOAD PUSH32 0x8C379A000000000000000000000000000000000000000000000000000000000 DUP2 MSTORE PUSH1 0x4 ADD PUSH2 0x76A SWAP1 PUSH2 0x184E JUMP JUMPDEST PUSH1 0x40 MLOAD DUP1 SWAP2 SUB SWAP1 REVERT JUMPDEST PUSH0 PUSH0 PUSH0 DUP6 DUP2 MSTORE PUSH1 0x20 ADD SWAP1 DUP2 MSTORE PUSH1 0x20 ADD PUSH0 KECCAK256 SWAP1 POP PUSH1 0x1 PUSH1 0x2 DUP2 GT ISZERO PUSH2 0x79A JUMPI PUSH2 0x799 PUSH2 0x152C JUMP JUMPDEST JUMPDEST DUP2 PUSH1 0x3 ADD PUSH0 SWAP1 SLOAD SWAP1 PUSH2 0x100 EXP SWAP1 DIV PUSH1 0xFF AND PUSH1 0x2 DUP2 GT ISZERO PUSH2 0x7BD JUMPI PUSH2 0x7BC PUSH2 0x152C JUMP JUMPDEST JUMPDEST EQ PUSH2 0x7FD JUMPI PUSH1 0x40 MLOAD PUSH32 0x8C379A000000000000000000000000000000000000000000000000000000000 DUP2 MSTORE PUSH1 0x4 ADD PUSH2 0x7F4 SWAP1 PUSH2 0x1DB9 JUMP JUMPDEST PUSH1 0x40 MLOAD DUP1 SWAP2 SUB SWAP1 REVERT JUMPDEST PUSH1 0x2 DUP2 PUSH1 0x3 ADD PUSH0 PUSH2 0x100 EXP DUP2 SLOAD DUP2 PUSH1 0xFF MUL NOT AND SWAP1 DUP4 PUSH1 0x2 DUP2 GT ISZERO PUSH2 0x824 JUMPI PUSH2 0x823 PUSH2 0x152C JUMP JUMPDEST JUMPDEST MUL OR SWAP1 SSTORE POP DUP4 PUSH32 0xFEBA5A751CA0C9A627F556D01E4B850B46017690A91E6D470160F2563441A5E0 PUSH1 0x2 PUSH1 0x40 MLOAD PUSH2 0x85A SWAP2 SWAP1 PUSH2 0x1D30 JUMP JUMPDEST PUSH1 0x40 MLOAD DUP1 SWAP2 SUB SWAP1 LOG2 POP POP POP POP JUMP JUMPDEST PUSH1 0x1 PUSH0 DUP2 SLOAD DUP1 SWAP3 SWAP2 SWAP1 PUSH2 0x87A SWAP1 PUSH2 0x1927 JUMP JUMPDEST SWAP2 SWAP1 POP SSTORE POP PUSH1 0x40 MLOAD DUP1 PUSH1 0xA0 ADD PUSH1 0x40 MSTORE DUP1 PUSH1 0x1 SLOAD DUP2 MSTORE PUSH1 0x20 ADD CALLER PUSH20 0xFFFFFFFFFFFFFFFFFFFFFFFFFFFFFFFFFFFFFFFF AND DUP2 MSTORE PUSH1 0x20 ADD DUP3 DUP2 MSTORE PUSH1 0x20 ADD PUSH0 PUSH1 0x2 DUP2 GT ISZERO PUSH2 0x8C7 JUMPI PUSH2 0x8C6 PUSH2 0x152C JUMP JUMPDEST JUMPDEST DUP2 MSTORE PUSH1 0x20 ADD PUSH0 DUP2 MSTORE POP PUSH0 PUSH0 PUSH1 0x1 SLOAD DUP2 MSTORE PUSH1 0x20 ADD SWAP1 DUP2 MSTORE PUSH1 0x20 ADD PUSH0 KECCAK256 PUSH0 DUP3 ADD MLOAD DUP2 PUSH0 ADD SSTORE PUSH1 0x20 DUP3 ADD MLOAD DUP2 PUSH1 0x1 ADD PUSH0 PUSH2 0x100 EXP DUP2 SLOAD DUP2 PUSH20 0xFFFFFFFFFFFFFFFFFFFFFFFFFFFFFFFFFFFFFFFF MUL NOT AND SWAP1 DUP4 PUSH20 0xFFFFFFFFFFFFFFFFFFFFFFFFFFFFFFFFFFFFFFFF AND MUL OR SWAP1 SSTORE POP PUSH1 0x40 DUP3 ADD MLOAD DUP2 PUSH1 0x2 ADD SWAP1 DUP2 PUSH2 0x945 SWAP2 SWAP1 PUSH2 0x1B6B JUMP JUMPDEST POP PUSH1 0x60 DUP3 ADD MLOAD DUP2 PUSH1 0x3 ADD PUSH0 PUSH2 0x100 EXP DUP2 SLOAD DUP2 PUSH1 0xFF MUL NOT AND SWAP1 DUP4 PUSH1 0x2 DUP2 GT ISZERO PUSH2 0x970 JUMPI PUSH2 0x96F PUSH2 0x152C JUMP JUMPDEST JUMPDEST MUL OR SWAP1 SSTORE POP PUSH1 0x80 DUP3 ADD MLOAD DUP2 PUSH1 0x4 ADD SSTORE SWAP1 POP POP CALLER PUSH20 0xFFFFFFFFFFFFFFFFFFFFFFFFFFFFFFFFFFFFFFFF AND PUSH1 0x1 SLOAD PUSH32 0x7CF84E937B660A86B8D03903ABF94C2E2976B2273DA8DFBEF2D89B7AC560463E DUP4 PUSH1 0x40 MLOAD PUSH2 0x9CB SWAP2 SWAP1 PUSH2 0x1DD7 JUMP JUMPDEST PUSH1 0x40 MLOAD DUP1 SWAP2 SUB SWAP1 LOG3 POP JUMP JUMPDEST PUSH1 0x2 PUSH1 0x20 MSTORE DUP2 PUSH0 MSTORE PUSH1 0x40 PUSH0 KECCAK256 PUSH1 0x20 MSTORE DUP1 PUSH0 MSTORE PUSH1 0x40 PUSH0 KECCAK256 PUSH0 SWAP2 POP SWAP2 POP POP DUP1 PUSH0 ADD SLOAD SWAP1 DUP1 PUSH1 0x1 ADD DUP1 SLOAD PUSH2 0xA06 SWAP1 PUSH2 0x199B JUMP JUMPDEST DUP1 PUSH1 0x1F ADD PUSH1 0x20 DUP1 SWAP2 DIV MUL PUSH1 0x20 ADD PUSH1 0x40 MLOAD SWAP1 DUP2 ADD PUSH1 0x40 MSTORE DUP1 SWAP3 SWAP2 SWAP1 DUP2 DUP2 MSTORE PUSH1 0x20 ADD DUP3 DUP1 SLOAD PUSH2 0xA32 SWAP1 PUSH2 0x199B JUMP JUMPDEST DUP1 ISZERO PUSH2 0xA7D JUMPI DUP1 PUSH1 0x1F LT PUSH2 0xA54 JUMPI PUSH2 0x100 DUP1 DUP4 SLOAD DIV MUL DUP4 MSTORE SWAP2 PUSH1 0x20 ADD SWAP2 PUSH2 0xA7D JUMP JUMPDEST DUP3 ADD SWAP2 SWAP1 PUSH0 MSTORE PUSH1 0x20 PUSH0 KECCAK256 SWAP1 JUMPDEST DUP2 SLOAD DUP2 MSTORE SWAP1 PUSH1 0x1 ADD SWAP1 PUSH1 0x20 ADD DUP1 DUP4 GT PUSH2 0xA60 JUMPI DUP3 SWAP1 SUB PUSH1 0x1F AND DUP3 ADD SWAP2 JUMPDEST POP POP POP POP POP SWAP1 DUP1 PUSH1 0x2 ADD SLOAD SWAP1 POP DUP4 JUMP JUMPDEST PUSH1 0x1 SLOAD DUP2 JUMP JUMPDEST PUSH0 DUP3 PUSH0 DUP2 GT DUP1 ISZERO PUSH2 0xAA6 JUMPI POP PUSH1 0x1 SLOAD DUP2 GT ISZERO JUMPDEST PUSH2 0xAE5 JUMPI PUSH1 0x40 MLOAD PUSH32 0x8C379A000000000000000000000000000000000000000000000000000000000 DUP2 MSTORE PUSH1 0x4 ADD PUSH2 0xADC SWAP1 PUSH2 0x17C0 JUMP JUMPDEST PUSH1 0x40 MLOAD DUP1 SWAP2 SUB SWAP1 REVERT JUMPDEST PUSH1 0x3 PUSH0 DUP6 DUP2 MSTORE PUSH1 0x20 ADD SWAP1 DUP2 MSTORE PUSH1 0x20 ADD PUSH0 KECCAK256 PUSH0 DUP5 PUSH20 0xFFFFFFFFFFFFFFFFFFFFFFFFFFFFFFFFFFFFFFFF AND PUSH20 0xFFFFFFFFFFFFFFFFFFFFFFFFFFFFFFFFFFFFFFFF AND DUP2 MSTORE PUSH1 0x20 ADD SWAP1 DUP2 MSTORE PUSH1 0x20 ADD PUSH0 KECCAK256 PUSH0 SWAP1 SLOAD SWAP1 PUSH2 0x100 EXP SWAP1 DIV PUSH1 0xFF AND SWAP2 POP POP SWAP3 SWAP2 POP POP JUMP JUMPDEST PUSH1 0x3 PUSH1 0x20 MSTORE DUP2 PUSH0 MSTORE PUSH1 0x40 PUSH0 KECCAK256 PUSH1 0x20 MSTORE DUP1 PUSH0 MSTORE PUSH1 0x40 PUSH0 KECCAK256 PUSH0 SWAP2 POP SWAP2 POP SWAP1 SLOAD SWAP1 PUSH2 0x100 EXP SWAP1 DIV PUSH1 0xFF AND DUP2 JUMP JUMPDEST PUSH0 PUSH1 0x20 MSTORE DUP1 PUSH0 MSTORE PUSH1 0x40 PUSH0 KECCAK256 PUSH0 SWAP2 POP SWAP1 POP DUP1 PUSH0 ADD SLOAD SWAP1 DUP1 PUSH1 0x1 ADD PUSH0 SWAP1 SLOAD SWAP1 PUSH2 0x100 EXP SWAP1 DIV PUSH20 0xFFFFFFFFFFFFFFFFFFFFFFFFFFFFFFFFFFFFFFFF AND SWAP1 DUP1 PUSH1 0x2 ADD DUP1 SLOAD PUSH2 0xBBA SWAP1 PUSH2 0x199B JUMP JUMPDEST DUP1 PUSH1 0x1F ADD PUSH1 0x20 DUP1 SWAP2 DIV MUL PUSH1 0x20 ADD PUSH1 0x40 MLOAD SWAP1 DUP2 ADD PUSH1 0x40 MSTORE DUP1 SWAP3 SWAP2 SWAP1 DUP2 DUP2 MSTORE PUSH1 0x20 ADD DUP3 DUP1 SLOAD PUSH2 0xBE6 SWAP1 PUSH2 0x199B JUMP JUMPDEST DUP1 ISZERO PUSH2 0xC31 JUMPI DUP1 PUSH1 0x1F LT PUSH2 0xC08 JUMPI PUSH2 0x100 DUP1 DUP4 SLOAD DIV MUL DUP4 MSTORE SWAP2 PUSH1 0x20 ADD SWAP2 PUSH2 0xC31 JUMP JUMPDEST DUP3 ADD SWAP2 SWAP1 PUSH0 MSTORE PUSH1 0x20 PUSH0 KECCAK256 SWAP1 JUMPDEST DUP2 SLOAD DUP2 MSTORE SWAP1 PUSH1 0x1 ADD SWAP1 PUSH1 0x20 ADD DUP1 DUP4 GT PUSH2 0xC14 JUMPI DUP3 SWAP1 SUB PUSH1 0x1F AND DUP3 ADD SWAP2 JUMPDEST POP POP POP POP POP SWAP1 DUP1 PUSH1 0x3 ADD PUSH0 SWAP1 SLOAD SWAP1 PUSH2 0x100 EXP SWAP1 DIV PUSH1 0xFF AND SWAP1 DUP1 PUSH1 0x4 ADD SLOAD SWAP1 POP DUP6 JUMP JUMPDEST DUP2 PUSH0 DUP2 GT DUP1 ISZERO PUSH2 0xC65 JUMPI POP PUSH1 0x1 SLOAD DUP2 GT ISZERO JUMPDEST PUSH2 0xCA4 JUMPI PUSH1 0x40 MLOAD PUSH32 0x8C379A000000000000000000000000000000000000000000000000000000000 DUP2 MSTORE PUSH1 0x4 ADD PUSH2 0xC9B SWAP1 PUSH2 0x17C0 JUMP JUMPDEST PUSH1 0x40 MLOAD DUP1 SWAP2 SUB SWAP1 REVERT JUMPDEST PUSH0 PUSH0 PUSH0 DUP6 DUP2 MSTORE PUSH1 0x20 ADD SWAP1 DUP2 MSTORE PUSH1 0x20 ADD PUSH0 KECCAK256 SWAP1 POP PUSH1 0x1 PUSH1 0x2 DUP2 GT ISZERO PUSH2 0xCCB JUMPI PUSH2 0xCCA PUSH2 0x152C JUMP JUMPDEST JUMPDEST DUP2 PUSH1 0x3 ADD PUSH0 SWAP1 SLOAD SWAP1 PUSH2 0x100 EXP SWAP1 DIV PUSH1 0xFF AND PUSH1 0x2 DUP2 GT ISZERO PUSH2 0xCEE JUMPI PUSH2 0xCED PUSH2 0x152C JUMP JUMPDEST JUMPDEST EQ PUSH2 0xD2E JUMPI PUSH1 0x40 MLOAD PUSH32 0x8C379A000000000000000000000000000000000000000000000000000000000 DUP2 MSTORE PUSH1 0x4 ADD PUSH2 0xD25 SWAP1 PUSH2 0x1E41 JUMP JUMPDEST PUSH1 0x40 MLOAD DUP1 SWAP2 SUB SWAP1 REVERT JUMPDEST PUSH1 0x3 PUSH0 DUP6 DUP2 MSTORE PUSH1 0x20 ADD SWAP1 DUP2 MSTORE PUSH1 0x20 ADD PUSH0 KECCAK256 PUSH0 CALLER PUSH20 0xFFFFFFFFFFFFFFFFFFFFFFFFFFFFFFFFFFFFFFFF AND PUSH20 0xFFFFFFFFFFFFFFFFFFFFFFFFFFFFFFFFFFFFFFFF AND DUP2 MSTORE PUSH1 0x20 ADD SWAP1 DUP2 MSTORE PUSH1 0x20 ADD PUSH0 KECCAK256 PUSH0 SWAP1 SLOAD SWAP1 PUSH2 0x100 EXP SWAP1 DIV PUSH1 0xFF AND ISZERO PUSH2 0xDC7 JUMPI PUSH1 0x40 MLOAD PUSH32 0x8C379A000000000000000000000000000000000000000000000000000000000 DUP2 MSTORE PUSH1 0x4 ADD PUSH2 0xDBE SWAP1 PUSH2 0x1EA9 JUMP JUMPDEST PUSH1 0x40 MLOAD DUP1 SWAP2 SUB SWAP1 REVERT JUMPDEST PUSH0 DUP4 GT DUP1 ISZERO PUSH2 0xDDA JUMPI POP DUP1 PUSH1 0x4 ADD SLOAD DUP4 GT ISZERO JUMPDEST PUSH2 0xE19 JUMPI PUSH1 0x40 MLOAD PUSH32 0x8C379A000000000000000000000000000000000000000000000000000000000 DUP2 MSTORE PUSH1 0x4 ADD PUSH2 0xE10 SWAP1 PUSH2 0x1F11 JUMP JUMPDEST PUSH1 0x40 MLOAD DUP1 SWAP2 SUB SWAP1 REVERT JUMPDEST PUSH1 0x2 PUSH0 DUP6 DUP2 MSTORE PUSH1 0x20 ADD SWAP1 DUP2 MSTORE PUSH1 0x20 ADD PUSH0 KECCAK256 PUSH0 DUP5 DUP2 MSTORE PUSH1 0x20 ADD SWAP1 DUP2 MSTORE PUSH1 0x20 ADD PUSH0 KECCAK256 PUSH1 0x2 ADD PUSH0 DUP2 SLOAD DUP1 SWAP3 SWAP2 SWAP1 PUSH2 0xE4C SWAP1 PUSH2 0x1927 JUMP JUMPDEST SWAP2 SWAP1 POP SSTORE POP PUSH1 0x1 PUSH1 0x3 PUSH0 DUP7 DUP2 MSTORE PUSH1 0x20 ADD SWAP1 DUP2 MSTORE PUSH1 0x20 ADD PUSH0 KECCAK256 PUSH0 CALLER PUSH20 0xFFFFFFFFFFFFFFFFFFFFFFFFFFFFFFFFFFFFFFFF AND PUSH20 0xFFFFFFFFFFFFFFFFFFFFFFFFFFFFFFFFFFFFFFFF AND DUP2 MSTORE PUSH1 0x20 ADD SWAP1 DUP2 MSTORE PUSH1 0x20 ADD PUSH0 KECCAK256 PUSH0 PUSH2 0x100 EXP DUP2 SLOAD DUP2 PUSH1 0xFF MUL NOT AND SWAP1 DUP4 ISZERO ISZERO MUL OR SWAP1 SSTORE POP CALLER PUSH20 0xFFFFFFFFFFFFFFFFFFFFFFFFFFFFFFFFFFFFFFFF AND DUP4 DUP6 PUSH32 0xD91ECAFCCF238642DCCD41161308B3EEBE62A12BC5819DAF5164780C221EC95B PUSH1 0x40 MLOAD PUSH1 0x40 MLOAD DUP1 SWAP2 SUB SWAP1 LOG4 POP POP POP POP JUMP JUMPDEST PUSH1 0x60 DUP2 PUSH0 DUP2 GT DUP1 ISZERO PUSH2 0xF14 JUMPI POP PUSH1 0x1 SLOAD DUP2 GT ISZERO JUMPDEST PUSH2 0xF53 JUMPI PUSH1 0x40 MLOAD PUSH32 0x8C379A000000000000000000000000000000000000000000000000000000000 DUP2 MSTORE PUSH1 0x4 ADD PUSH2 0xF4A SWAP1 PUSH2 0x17C0 JUMP JUMPDEST PUSH1 0x40 MLOAD DUP1 SWAP2 SUB SWAP1 REVERT JUMPDEST PUSH0 PUSH0 PUSH0 DUP6 DUP2 MSTORE PUSH1 0x20 ADD SWAP1 DUP2 MSTORE PUSH1 0x20 ADD PUSH0 KECCAK256 PUSH1 0x4 ADD SLOAD SWAP1 POP PUSH0 DUP2 PUSH8 0xFFFFFFFFFFFFFFFF DUP2 GT ISZERO PUSH2 0xF85 JUMPI PUSH2 0xF84 PUSH2 0x1160 JUMP JUMPDEST JUMPDEST PUSH1 0x40 MLOAD SWAP1 DUP1 DUP3 MSTORE DUP1 PUSH1 0x20 MUL PUSH1 0x20 ADD DUP3 ADD PUSH1 0x40 MSTORE DUP1 ISZERO PUSH2 0xFBE JUMPI DUP2 PUSH1 0x20 ADD JUMPDEST PUSH2 0xFAB PUSH2 0x10E5 JUMP JUMPDEST DUP2 MSTORE PUSH1 0x20 ADD SWAP1 PUSH1 0x1 SWAP1 SUB SWAP1 DUP2 PUSH2 0xFA3 JUMPI SWAP1 POP JUMPDEST POP SWAP1 POP PUSH0 PUSH1 0x1 SWAP1 POP JUMPDEST DUP3 DUP2 GT PUSH2 0x10D9 JUMPI PUSH1 0x2 PUSH0 DUP8 DUP2 MSTORE PUSH1 0x20 ADD SWAP1 DUP2 MSTORE PUSH1 0x20 ADD PUSH0 KECCAK256 PUSH0 DUP3 DUP2 MSTORE PUSH1 0x20 ADD SWAP1 DUP2 MSTORE PUSH1 0x20 ADD PUSH0 KECCAK256 PUSH1 0x40 MLOAD DUP1 PUSH1 0x60 ADD PUSH1 0x40 MSTORE SWAP1 DUP2 PUSH0 DUP3 ADD SLOAD DUP2 MSTORE PUSH1 0x20 ADD PUSH1 0x1 DUP3 ADD DUP1 SLOAD PUSH2 0x1012 SWAP1 PUSH2 0x199B JUMP JUMPDEST DUP1 PUSH1 0x1F ADD PUSH1 0x20 DUP1 SWAP2 DIV MUL PUSH1 0x20 ADD PUSH1 0x40 MLOAD SWAP1 DUP2 ADD PUSH1 0x40 MSTORE DUP1 SWAP3 SWAP2 SWAP1 DUP2 DUP2 MSTORE PUSH1 0x20 ADD DUP3 DUP1 SLOAD PUSH2 0x103E SWAP1 PUSH2 0x199B JUMP JUMPDEST DUP1 ISZERO PUSH2 0x1089 JUMPI DUP1 PUSH1 0x1F LT PUSH2 0x1060 JUMPI PUSH2 0x100 DUP1 DUP4 SLOAD DIV MUL DUP4 MSTORE SWAP2 PUSH1 0x20 ADD SWAP2 PUSH2 0x1089 JUMP JUMPDEST DUP3 ADD SWAP2 SWAP1 PUSH0 MSTORE PUSH1 0x20 PUSH0 KECCAK256 SWAP1 JUMPDEST DUP2 SLOAD DUP2 MSTORE SWAP1 PUSH1 0x1 ADD SWAP1 PUSH1 0x20 ADD DUP1 DUP4 GT PUSH2 0x106C JUMPI DUP3 SWAP1 SUB PUSH1 0x1F AND DUP3 ADD SWAP2 JUMPDEST POP POP POP POP POP DUP2 MSTORE PUSH1 0x20 ADD PUSH1 0x2 DUP3 ADD SLOAD DUP2 MSTORE POP POP DUP3 PUSH1 0x1 DUP4 PUSH2 0x10AA SWAP2 SWAP1 PUSH2 0x1F2F JUMP JUMPDEST DUP2 MLOAD DUP2 LT PUSH2 0x10BB JUMPI PUSH2 0x10BA PUSH2 0x1F62 JUMP JUMPDEST JUMPDEST PUSH1 0x20 MUL PUSH1 0x20 ADD ADD DUP2 SWAP1 MSTORE POP DUP1 DUP1 PUSH2 0x10D1 SWAP1 PUSH2 0x1927 JUMP JUMPDEST SWAP2 POP POP PUSH2 0xFC7 JUMP JUMPDEST POP DUP1 SWAP4 POP POP POP POP SWAP2 SWAP1 POP JUMP JUMPDEST PUSH1 0x40 MLOAD DUP1 PUSH1 0x60 ADD PUSH1 0x40 MSTORE DUP1 PUSH0 DUP2 MSTORE PUSH1 0x20 ADD PUSH1 0x60 DUP2 MSTORE PUSH1 0x20 ADD PUSH0 DUP2 MSTORE POP SWAP1 JUMP JUMPDEST PUSH0 PUSH1 0x40 MLOAD SWAP1 POP SWAP1 JUMP JUMPDEST PUSH0 PUSH0 REVERT JUMPDEST PUSH0 PUSH0 REVERT JUMPDEST PUSH0 DUP2 SWAP1 POP SWAP2 SWAP1 POP JUMP JUMPDEST PUSH2 0x1127 DUP2 PUSH2 0x1115 JUMP JUMPDEST DUP2 EQ PUSH2 0x1131 JUMPI PUSH0 PUSH0 REVERT JUMPDEST POP JUMP JUMPDEST PUSH0 DUP2 CALLDATALOAD SWAP1 POP PUSH2 0x1142 DUP2 PUSH2 0x111E JUMP JUMPDEST SWAP3 SWAP2 POP POP JUMP JUMPDEST PUSH0 PUSH0 REVERT JUMPDEST PUSH0 PUSH0 REVERT JUMPDEST PUSH0 PUSH1 0x1F NOT PUSH1 0x1F DUP4 ADD AND SWAP1 POP SWAP2 SWAP1 POP JUMP JUMPDEST PUSH32 0x4E487B7100000000000000000000000000000000000000000000000000000000 PUSH0 MSTORE PUSH1 0x41 PUSH1 0x4 MSTORE PUSH1 0x24 PUSH0 REVERT JUMPDEST PUSH2 0x1196 DUP3 PUSH2 0x1150 JUMP JUMPDEST DUP2 ADD DUP2 DUP2 LT PUSH8 0xFFFFFFFFFFFFFFFF DUP3 GT OR ISZERO PUSH2 0x11B5 JUMPI PUSH2 0x11B4 PUSH2 0x1160 JUMP JUMPDEST JUMPDEST DUP1 PUSH1 0x40 MSTORE POP POP POP JUMP JUMPDEST PUSH0 PUSH2 0x11C7 PUSH2 0x1104 JUMP JUMPDEST SWAP1 POP PUSH2 0x11D3 DUP3 DUP3 PUSH2 0x118D JUMP JUMPDEST SWAP2 SWAP1 POP JUMP JUMPDEST PUSH0 PUSH8 0xFFFFFFFFFFFFFFFF DUP3 GT ISZERO PUSH2 0x11F2 JUMPI PUSH2 0x11F1 PUSH2 0x1160 JUMP JUMPDEST JUMPDEST PUSH2 0x11FB DUP3 PUSH2 0x1150 JUMP JUMPDEST SWAP1 POP PUSH1 0x20 DUP2 ADD SWAP1 POP SWAP2 SWAP1 POP JUMP JUMPDEST DUP3 DUP2 DUP4 CALLDATACOPY PUSH0 DUP4 DUP4 ADD MSTORE POP POP POP JUMP JUMPDEST PUSH0 PUSH2 0x1228 PUSH2 0x1223 DUP5 PUSH2 0x11D8 JUMP JUMPDEST PUSH2 0x11BE JUMP JUMPDEST SWAP1 POP DUP3 DUP2 MSTORE PUSH1 0x20 DUP2 ADD DUP5 DUP5 DUP5 ADD GT ISZERO PUSH2 0x1244 JUMPI PUSH2 0x1243 PUSH2 0x114C JUMP JUMPDEST JUMPDEST PUSH2 0x124F DUP5 DUP3 DUP6 PUSH2 0x1208 JUMP JUMPDEST POP SWAP4 SWAP3 POP POP POP JUMP JUMPDEST PUSH0 DUP3 PUSH1 0x1F DUP4 ADD SLT PUSH2 0x126B JUMPI PUSH2 0x126A PUSH2 0x1148 JUMP JUMPDEST JUMPDEST DUP2 CALLDATALOAD PUSH2 0x127B DUP5 DUP3 PUSH1 0x20 DUP7 ADD PUSH2 0x1216 JUMP JUMPDEST SWAP2 POP POP SWAP3 SWAP2 POP POP JUMP JUMPDEST PUSH0 PUSH0 PUSH1 0x40 DUP4 DUP6 SUB SLT ISZERO PUSH2 0x129A JUMPI PUSH2 0x1299 PUSH2 0x110D JUMP JUMPDEST JUMPDEST PUSH0 PUSH2 0x12A7 DUP6 DUP3 DUP7 ADD PUSH2 0x1134 JUMP JUMPDEST SWAP3 POP POP PUSH1 0x20 DUP4 ADD CALLDATALOAD PUSH8 0xFFFFFFFFFFFFFFFF DUP2 GT ISZERO PUSH2 0x12C8 JUMPI PUSH2 0x12C7 PUSH2 0x1111 JUMP JUMPDEST JUMPDEST PUSH2 0x12D4 DUP6 DUP3 DUP7 ADD PUSH2 0x1257 JUMP JUMPDEST SWAP2 POP POP SWAP3 POP SWAP3 SWAP1 POP JUMP JUMPDEST PUSH0 PUSH1 0x20 DUP3 DUP5 SUB SLT ISZERO PUSH2 0x12F3 JUMPI PUSH2 0x12F2 PUSH2 0x110D JUMP JUMPDEST JUMPDEST PUSH0 PUSH2 0x1300 DUP5 DUP3 DUP6 ADD PUSH2 0x1134 JUMP JUMPDEST SWAP2 POP POP SWAP3 SWAP2 POP POP JUMP JUMPDEST PUSH0 PUSH1 0x20 DUP3 DUP5 SUB SLT ISZERO PUSH2 0x131E JUMPI PUSH2 0x131D PUSH2 0x110D JUMP JUMPDEST JUMPDEST PUSH0 DUP3 ADD CALLDATALOAD PUSH8 0xFFFFFFFFFFFFFFFF DUP2 GT ISZERO PUSH2 0x133B JUMPI PUSH2 0x133A PUSH2 0x1111 JUMP JUMPDEST JUMPDEST PUSH2 0x1347 DUP5 DUP3 DUP6 ADD PUSH2 0x1257 JUMP JUMPDEST SWAP2 POP POP SWAP3 SWAP2 POP POP JUMP JUMPDEST PUSH0 PUSH0 PUSH1 0x40 DUP4 DUP6 SUB SLT ISZERO PUSH2 0x1366 JUMPI PUSH2 0x1365 PUSH2 0x110D JUMP JUMPDEST JUMPDEST PUSH0 PUSH2 0x1373 DUP6 DUP3 DUP7 ADD PUSH2 0x1134 JUMP JUMPDEST SWAP3 POP POP PUSH1 0x20 PUSH2 0x1384 DUP6 DUP3 DUP7 ADD PUSH2 0x1134 JUMP JUMPDEST SWAP2 POP POP SWAP3 POP SWAP3 SWAP1 POP JUMP JUMPDEST PUSH2 0x1397 DUP2 PUSH2 0x1115 JUMP JUMPDEST DUP3 MSTORE POP POP JUMP JUMPDEST PUSH0 DUP2 MLOAD SWAP1 POP SWAP2 SWAP1 POP JUMP JUMPDEST PUSH0 DUP3 DUP3 MSTORE PUSH1 0x20 DUP3 ADD SWAP1 POP SWAP3 SWAP2 POP POP JUMP JUMPDEST DUP3 DUP2 DUP4 MCOPY PUSH0 DUP4 DUP4 ADD MSTORE POP POP POP JUMP JUMPDEST PUSH0 PUSH2 0x13CF DUP3 PUSH2 0x139D JUMP JUMPDEST PUSH2 0x13D9 DUP2 DUP6 PUSH2 0x13A7 JUMP JUMPDEST SWAP4 POP PUSH2 0x13E9 DUP2 DUP6 PUSH1 0x20 DUP7 ADD PUSH2 0x13B7 JUMP JUMPDEST PUSH2 0x13F2 DUP2 PUSH2 0x1150 JUMP JUMPDEST DUP5 ADD SWAP2 POP POP SWAP3 SWAP2 POP POP JUMP JUMPDEST PUSH0 PUSH1 0x60 DUP3 ADD SWAP1 POP PUSH2 0x1410 PUSH0 DUP4 ADD DUP7 PUSH2 0x138E JUMP JUMPDEST DUP2 DUP2 SUB PUSH1 0x20 DUP4 ADD MSTORE PUSH2 0x1422 DUP2 DUP6 PUSH2 0x13C5 JUMP JUMPDEST SWAP1 POP PUSH2 0x1431 PUSH1 0x40 DUP4 ADD DUP5 PUSH2 0x138E JUMP JUMPDEST SWAP5 SWAP4 POP POP POP POP JUMP JUMPDEST PUSH0 PUSH1 0x20 DUP3 ADD SWAP1 POP PUSH2 0x144C PUSH0 DUP4 ADD DUP5 PUSH2 0x138E JUMP JUMPDEST SWAP3 SWAP2 POP POP JUMP JUMPDEST PUSH0 PUSH20 0xFFFFFFFFFFFFFFFFFFFFFFFFFFFFFFFFFFFFFFFF DUP3 AND SWAP1 POP SWAP2 SWAP1 POP JUMP JUMPDEST PUSH0 PUSH2 0x147B DUP3 PUSH2 0x1452 JUMP JUMPDEST SWAP1 POP SWAP2 SWAP1 POP JUMP JUMPDEST PUSH2 0x148B DUP2 PUSH2 0x1471 JUMP JUMPDEST DUP2 EQ PUSH2 0x1495 JUMPI PUSH0 PUSH0 REVERT JUMPDEST POP JUMP JUMPDEST PUSH0 DUP2 CALLDATALOAD SWAP1 POP PUSH2 0x14A6 DUP2 PUSH2 0x1482 JUMP JUMPDEST SWAP3 SWAP2 POP POP JUMP JUMPDEST PUSH0 PUSH0 PUSH1 0x40 DUP4 DUP6 SUB SLT ISZERO PUSH2 0x14C2 JUMPI PUSH2 0x14C1 PUSH2 0x110D JUMP JUMPDEST JUMPDEST PUSH0 PUSH2 0x14CF DUP6 DUP3 DUP7 ADD PUSH2 0x1134 JUMP JUMPDEST SWAP3 POP POP PUSH1 0x20 PUSH2 0x14E0 DUP6 DUP3 DUP7 ADD PUSH2 0x1498 JUMP JUMPDEST SWAP2 POP POP SWAP3 POP SWAP3 SWAP1 POP JUMP JUMPDEST PUSH0 DUP2 ISZERO ISZERO SWAP1 POP SWAP2 SWAP1 POP JUMP JUMPDEST PUSH2 0x14FE DUP2 PUSH2 0x14EA JUMP JUMPDEST DUP3 MSTORE POP POP JUMP JUMPDEST PUSH0 PUSH1 0x20 DUP3 ADD SWAP1 POP PUSH2 0x1517 PUSH0 DUP4 ADD DUP5 PUSH2 0x14F5 JUMP JUMPDEST SWAP3 SWAP2 POP POP JUMP JUMPDEST PUSH2 0x1526 DUP2 PUSH2 0x1471 JUMP JUMPDEST DUP3 MSTORE POP POP JUMP JUMPDEST PUSH32 0x4E487B7100000000000000000000000000000000000000000000000000000000 PUSH0 MSTORE PUSH1 0x21 PUSH1 0x4 MSTORE PUSH1 0x24 PUSH0 REVERT JUMPDEST PUSH1 0x3 DUP2 LT PUSH2 0x156A JUMPI PUSH2 0x1569 PUSH2 0x152C JUMP JUMPDEST JUMPDEST POP JUMP JUMPDEST PUSH0 DUP2 SWAP1 POP PUSH2 0x157A DUP3 PUSH2 0x1559 JUMP JUMPDEST SWAP2 SWAP1 POP JUMP JUMPDEST PUSH0 PUSH2 0x1589 DUP3 PUSH2 0x156D JUMP JUMPDEST SWAP1 POP SWAP2 SWAP1 POP JUMP JUMPDEST PUSH2 0x1599 DUP2 PUSH2 0x157F JUMP JUMPDEST DUP3 MSTORE POP POP JUMP JUMPDEST PUSH0 PUSH1 0xA0 DUP3 ADD SWAP1 POP PUSH2 0x15B2 PUSH0 DUP4 ADD DUP9 PUSH2 0x138E JUMP JUMPDEST PUSH2 0x15BF PUSH1 0x20 DUP4 ADD DUP8 PUSH2 0x151D JUMP JUMPDEST DUP2 DUP2 SUB PUSH1 0x40 DUP4 ADD MSTORE PUSH2 0x15D1 DUP2 DUP7 PUSH2 0x13C5 JUMP JUMPDEST SWAP1 POP PUSH2 0x15E0 PUSH1 0x60 DUP4 ADD DUP6 PUSH2 0x1590 JUMP JUMPDEST PUSH2 0x15ED PUSH1 0x80 DUP4 ADD DUP5 PUSH2 0x138E JUMP JUMPDEST SWAP7 SWAP6 POP POP POP POP POP POP JUMP JUMPDEST PUSH0 DUP2 MLOAD SWAP1 POP SWAP2 SWAP1 POP JUMP JUMPDEST PUSH0 DUP3 DUP3 MSTORE PUSH1 0x20 DUP3 ADD SWAP1 POP SWAP3 SWAP2 POP POP JUMP JUMPDEST PUSH0 DUP2 SWAP1 POP PUSH1 0x20 DUP3 ADD SWAP1 POP SWAP2 SWAP1 POP JUMP JUMPDEST PUSH2 0x1629 DUP2 PUSH2 0x1115 JUMP JUMPDEST DUP3 MSTORE POP POP JUMP JUMPDEST PUSH0 DUP3 DUP3 MSTORE PUSH1 0x20 DUP3 ADD SWAP1 POP SWAP3 SWAP2 POP POP JUMP JUMPDEST PUSH0 PUSH2 0x1649 DUP3 PUSH2 0x139D JUMP JUMPDEST PUSH2 0x1653 DUP2 DUP6 PUSH2 0x162F JUMP JUMPDEST SWAP4 POP PUSH2 0x1663 DUP2 DUP6 PUSH1 0x20 DUP7 ADD PUSH2 0x13B7 JUMP JUMPDEST PUSH2 0x166C DUP2 PUSH2 0x1150 JUMP JUMPDEST DUP5 ADD SWAP2 POP POP SWAP3 SWAP2 POP POP JUMP JUMPDEST PUSH0 PUSH1 0x60 DUP4 ADD PUSH0 DUP4 ADD MLOAD PUSH2 0x168C PUSH0 DUP7 ADD DUP3 PUSH2 0x1620 JUMP JUMPDEST POP PUSH1 0x20 DUP4 ADD MLOAD DUP5 DUP3 SUB PUSH1 0x20 DUP7 ADD MSTORE PUSH2 0x16A4 DUP3 DUP3 PUSH2 0x163F JUMP JUMPDEST SWAP2 POP POP PUSH1 0x40 DUP4 ADD MLOAD PUSH2 0x16B9 PUSH1 0x40 DUP7 ADD DUP3 PUSH2 0x1620 JUMP JUMPDEST POP DUP1 SWAP2 POP POP SWAP3 SWAP2 POP POP JUMP JUMPDEST PUSH0 PUSH2 0x16CF DUP4 DUP4 PUSH2 0x1677 JUMP JUMPDEST SWAP1 POP SWAP3 SWAP2 POP POP JUMP JUMPDEST PUSH0 PUSH1 0x20 DUP3 ADD SWAP1 POP SWAP2 SWAP1 POP JUMP JUMPDEST PUSH0 PUSH2 0x16ED DUP3 PUSH2 0x15F7 JUMP JUMPDEST PUSH2 0x16F7 DUP2 DUP6 PUSH2 0x1601 JUMP JUMPDEST SWAP4 POP DUP4 PUSH1 0x20 DUP3 MUL DUP6 ADD PUSH2 0x1709 DUP6 PUSH2 0x1611 JUMP JUMPDEST DUP1 PUSH0 JUMPDEST DUP6 DUP2 LT ISZERO PUSH2 0x1744 JUMPI DUP5 DUP5 SUB DUP10 MSTORE DUP2 MLOAD PUSH2 0x1725 DUP6 DUP3 PUSH2 0x16C4 JUMP JUMPDEST SWAP5 POP PUSH2 0x1730 DUP4 PUSH2 0x16D7 JUMP JUMPDEST SWAP3 POP PUSH1 0x20 DUP11 ADD SWAP10 POP POP PUSH1 0x1 DUP2 ADD SWAP1 POP PUSH2 0x170C JUMP JUMPDEST POP DUP3 SWAP8 POP DUP8 SWAP6 POP POP POP POP POP POP SWAP3 SWAP2 POP POP JUMP JUMPDEST PUSH0 PUSH1 0x20 DUP3 ADD SWAP1 POP DUP2 DUP2 SUB PUSH0 DUP4 ADD MSTORE PUSH2 0x176E DUP2 DUP5 PUSH2 0x16E3 JUMP JUMPDEST SWAP1 POP SWAP3 SWAP2 POP POP JUMP JUMPDEST PUSH32 0x566F746163616F20696E6578697374656E74652E000000000000000000000000 PUSH0 DUP3 ADD MSTORE POP JUMP JUMPDEST PUSH0 PUSH2 0x17AA PUSH1 0x14 DUP4 PUSH2 0x13A7 JUMP JUMPDEST SWAP2 POP PUSH2 0x17B5 DUP3 PUSH2 0x1776 JUMP JUMPDEST PUSH1 0x20 DUP3 ADD SWAP1 POP SWAP2 SWAP1 POP JUMP JUMPDEST PUSH0 PUSH1 0x20 DUP3 ADD SWAP1 POP DUP2 DUP2 SUB PUSH0 DUP4 ADD MSTORE PUSH2 0x17D7 DUP2 PUSH2 0x179E JUMP JUMPDEST SWAP1 POP SWAP2 SWAP1 POP JUMP JUMPDEST PUSH32 0x4170656E6173206F2063726961646F7220646120766F746163616F20706F6465 PUSH0 DUP3 ADD MSTORE PUSH32 0x206368616D617220657374612066756E63616F2E000000000000000000000000 PUSH1 0x20 DUP3 ADD MSTORE POP JUMP JUMPDEST PUSH0 PUSH2 0x1838 PUSH1 0x34 DUP4 PUSH2 0x13A7 JUMP JUMPDEST SWAP2 POP PUSH2 0x1843 DUP3 PUSH2 0x17DE JUMP JUMPDEST PUSH1 0x40 DUP3 ADD SWAP1 POP SWAP2 SWAP1 POP JUMP JUMPDEST PUSH0 PUSH1 0x20 DUP3 ADD SWAP1 POP DUP2 DUP2 SUB PUSH0 DUP4 ADD MSTORE PUSH2 0x1865 DUP2 PUSH2 0x182C JUMP JUMPDEST SWAP1 POP SWAP2 SWAP1 POP JUMP JUMPDEST PUSH32 0x4120766F746163616F206A6120636F6D65636F75206F75207465726D696E6F75 PUSH0 DUP3 ADD MSTORE PUSH32 0x2E00000000000000000000000000000000000000000000000000000000000000 PUSH1 0x20 DUP3 ADD MSTORE POP JUMP JUMPDEST PUSH0 PUSH2 0x18C6 PUSH1 0x21 DUP4 PUSH2 0x13A7 JUMP JUMPDEST SWAP2 POP PUSH2 0x18D1 DUP3 PUSH2 0x186C JUMP JUMPDEST PUSH1 0x40 DUP3 ADD SWAP1 POP SWAP2 SWAP1 POP JUMP JUMPDEST PUSH0 PUSH1 0x20 DUP3 ADD SWAP1 POP DUP2 DUP2 SUB PUSH0 DUP4 ADD MSTORE PUSH2 0x18F3 DUP2 PUSH2 0x18BA JUMP JUMPDEST SWAP1 POP SWAP2 SWAP1 POP JUMP JUMPDEST PUSH32 0x4E487B7100000000000000000000000000000000000000000000000000000000 PUSH0 MSTORE PUSH1 0x11 PUSH1 0x4 MSTORE PUSH1 0x24 PUSH0 REVERT JUMPDEST PUSH0 PUSH2 0x1931 DUP3 PUSH2 0x1115 JUMP JUMPDEST SWAP2 POP PUSH32 0xFFFFFFFFFFFFFFFFFFFFFFFFFFFFFFFFFFFFFFFFFFFFFFFFFFFFFFFFFFFFFFFF DUP3 SUB PUSH2 0x1963 JUMPI PUSH2 0x1962 PUSH2 0x18FA JUMP JUMPDEST JUMPDEST PUSH1 0x1 DUP3 ADD SWAP1 POP SWAP2 SWAP1 POP JUMP JUMPDEST PUSH32 0x4E487B7100000000000000000000000000000000000000000000000000000000 PUSH0 MSTORE PUSH1 0x22 PUSH1 0x4 MSTORE PUSH1 0x24 PUSH0 REVERT JUMPDEST PUSH0 PUSH1 0x2 DUP3 DIV SWAP1 POP PUSH1 0x1 DUP3 AND DUP1 PUSH2 0x19B2 JUMPI PUSH1 0x7F DUP3 AND SWAP2 POP JUMPDEST PUSH1 0x20 DUP3 LT DUP2 SUB PUSH2 0x19C5 JUMPI PUSH2 0x19C4 PUSH2 0x196E JUMP JUMPDEST JUMPDEST POP SWAP2 SWAP1 POP JUMP JUMPDEST PUSH0 DUP2 SWAP1 POP DUP2 PUSH0 MSTORE PUSH1 0x20 PUSH0 KECCAK256 SWAP1 POP SWAP2 SWAP1 POP JUMP JUMPDEST PUSH0 PUSH1 0x20 PUSH1 0x1F DUP4 ADD DIV SWAP1 POP SWAP2 SWAP1 POP JUMP JUMPDEST PUSH0 DUP3 DUP3 SHL SWAP1 POP SWAP3 SWAP2 POP POP JUMP JUMPDEST PUSH0 PUSH1 0x8 DUP4 MUL PUSH2 0x1A27 PUSH32 0xFFFFFFFFFFFFFFFFFFFFFFFFFFFFFFFFFFFFFFFFFFFFFFFFFFFFFFFFFFFFFFFF DUP3 PUSH2 0x19EC JUMP JUMPDEST PUSH2 0x1A31 DUP7 DUP4 PUSH2 0x19EC JUMP JUMPDEST SWAP6 POP DUP1 NOT DUP5 AND SWAP4 POP DUP1 DUP7 AND DUP5 OR SWAP3 POP POP POP SWAP4 SWAP3 POP POP POP JUMP JUMPDEST PUSH0 DUP2 SWAP1 POP SWAP2 SWAP1 POP JUMP JUMPDEST PUSH0 PUSH2 0x1A6C PUSH2 0x1A67 PUSH2 0x1A62 DUP5 PUSH2 0x1115 JUMP JUMPDEST PUSH2 0x1A49 JUMP JUMPDEST PUSH2 0x1115 JUMP JUMPDEST SWAP1 POP SWAP2 SWAP1 POP JUMP JUMPDEST PUSH0 DUP2 SWAP1 POP SWAP2 SWAP1 POP JUMP JUMPDEST PUSH2 0x1A85 DUP4 PUSH2 0x1A52 JUMP JUMPDEST PUSH2 0x1A99 PUSH2 0x1A91 DUP3 PUSH2 0x1A73 JUMP JUMPDEST DUP5 DUP5 SLOAD PUSH2 0x19F8 JUMP JUMPDEST DUP3 SSTORE POP POP POP POP JUMP JUMPDEST PUSH0 PUSH0 SWAP1 POP SWAP1 JUMP JUMPDEST PUSH2 0x1AB0 PUSH2 0x1AA1 JUMP JUMPDEST PUSH2 0x1ABB DUP2 DUP5 DUP5 PUSH2 0x1A7C JUMP JUMPDEST POP POP POP JUMP JUMPDEST JUMPDEST DUP2 DUP2 LT ISZERO PUSH2 0x1ADE JUMPI PUSH2 0x1AD3 PUSH0 DUP3 PUSH2 0x1AA8 JUMP JUMPDEST PUSH1 0x1 DUP2 ADD SWAP1 POP PUSH2 0x1AC1 JUMP JUMPDEST POP POP JUMP JUMPDEST PUSH1 0x1F DUP3 GT ISZERO PUSH2 0x1B23 JUMPI PUSH2 0x1AF4 DUP2 PUSH2 0x19CB JUMP JUMPDEST PUSH2 0x1AFD DUP5 PUSH2 0x19DD JUMP JUMPDEST DUP2 ADD PUSH1 0x20 DUP6 LT ISZERO PUSH2 0x1B0C JUMPI DUP2 SWAP1 POP JUMPDEST PUSH2 0x1B20 PUSH2 0x1B18 DUP6 PUSH2 0x19DD JUMP JUMPDEST DUP4 ADD DUP3 PUSH2 0x1AC0 JUMP JUMPDEST POP POP JUMPDEST POP POP POP JUMP JUMPDEST PUSH0 DUP3 DUP3 SHR SWAP1 POP SWAP3 SWAP2 POP POP JUMP JUMPDEST PUSH0 PUSH2 0x1B43 PUSH0 NOT DUP5 PUSH1 0x8 MUL PUSH2 0x1B28 JUMP JUMPDEST NOT DUP1 DUP4 AND SWAP2 POP POP SWAP3 SWAP2 POP POP JUMP JUMPDEST PUSH0 PUSH2 0x1B5B DUP4 DUP4 PUSH2 0x1B34 JUMP JUMPDEST SWAP2 POP DUP3 PUSH1 0x2 MUL DUP3 OR SWAP1 POP SWAP3 SWAP2 POP POP JUMP JUMPDEST PUSH2 0x1B74 DUP3 PUSH2 0x139D JUMP JUMPDEST PUSH8 0xFFFFFFFFFFFFFFFF DUP2 GT ISZERO PUSH2 0x1B8D JUMPI PUSH2 0x1B8C PUSH2 0x1160 JUMP JUMPDEST JUMPDEST PUSH2 0x1B97 DUP3 SLOAD PUSH2 0x199B JUMP JUMPDEST PUSH2 0x1BA2 DUP3 DUP3 DUP6 PUSH2 0x1AE2 JUMP JUMPDEST PUSH0 PUSH1 0x20 SWAP1 POP PUSH1 0x1F DUP4 GT PUSH1 0x1 DUP2 EQ PUSH2 0x1BD3 JUMPI PUSH0 DUP5 ISZERO PUSH2 0x1BC1 JUMPI DUP3 DUP8 ADD MLOAD SWAP1 POP JUMPDEST PUSH2 0x1BCB DUP6 DUP3 PUSH2 0x1B50 JUMP JUMPDEST DUP7 SSTORE POP PUSH2 0x1C32 JUMP JUMPDEST PUSH1 0x1F NOT DUP5 AND PUSH2 0x1BE1 DUP7 PUSH2 0x19CB JUMP JUMPDEST PUSH0 JUMPDEST DUP3 DUP2 LT ISZERO PUSH2 0x1C08 JUMPI DUP5 DUP10 ADD MLOAD DUP3 SSTORE PUSH1 0x1 DUP3 ADD SWAP2 POP PUSH1 0x20 DUP6 ADD SWAP5 POP PUSH1 0x20 DUP2 ADD SWAP1 POP PUSH2 0x1BE3 JUMP JUMPDEST DUP7 DUP4 LT ISZERO PUSH2 0x1C25 JUMPI DUP5 DUP10 ADD MLOAD PUSH2 0x1C21 PUSH1 0x1F DUP10 AND DUP3 PUSH2 0x1B34 JUMP JUMPDEST DUP4 SSTORE POP JUMPDEST PUSH1 0x1 PUSH1 0x2 DUP9 MUL ADD DUP9 SSTORE POP POP POP JUMPDEST POP POP POP POP POP POP JUMP JUMPDEST PUSH32 0x4120766F746163616F206A6120666F6920696E6963696164612E000000000000 PUSH0 DUP3 ADD MSTORE POP JUMP JUMPDEST PUSH0 PUSH2 0x1C6E PUSH1 0x1A DUP4 PUSH2 0x13A7 JUMP JUMPDEST SWAP2 POP PUSH2 0x1C79 DUP3 PUSH2 0x1C3A JUMP JUMPDEST PUSH1 0x20 DUP3 ADD SWAP1 POP SWAP2 SWAP1 POP JUMP JUMPDEST PUSH0 PUSH1 0x20 DUP3 ADD SWAP1 POP DUP2 DUP2 SUB PUSH0 DUP4 ADD MSTORE PUSH2 0x1C9B DUP2 PUSH2 0x1C62 JUMP JUMPDEST SWAP1 POP SWAP2 SWAP1 POP JUMP JUMPDEST PUSH32 0x4120766F746163616F20646576652074657220616F206D656E6F7320756D2063 PUSH0 DUP3 ADD MSTORE PUSH32 0x616E64696461746F2E0000000000000000000000000000000000000000000000 PUSH1 0x20 DUP3 ADD MSTORE POP JUMP JUMPDEST PUSH0 PUSH2 0x1CFC PUSH1 0x29 DUP4 PUSH2 0x13A7 JUMP JUMPDEST SWAP2 POP PUSH2 0x1D07 DUP3 PUSH2 0x1CA2 JUMP JUMPDEST PUSH1 0x40 DUP3 ADD SWAP1 POP SWAP2 SWAP1 POP JUMP JUMPDEST PUSH0 PUSH1 0x20 DUP3 ADD SWAP1 POP DUP2 DUP2 SUB PUSH0 DUP4 ADD MSTORE PUSH2 0x1D29 DUP2 PUSH2 0x1CF0 JUMP JUMPDEST SWAP1 POP SWAP2 SWAP1 POP JUMP JUMPDEST PUSH0 PUSH1 0x20 DUP3 ADD SWAP1 POP PUSH2 0x1D43 PUSH0 DUP4 ADD DUP5 PUSH2 0x1590 JUMP JUMPDEST SWAP3 SWAP2 POP POP JUMP JUMPDEST PUSH32 0x4120766F746163616F206E616F20657374612061626572746120706172612073 PUSH0 DUP3 ADD MSTORE PUSH32 0x657220656E636572726164612E00000000000000000000000000000000000000 PUSH1 0x20 DUP3 ADD MSTORE POP JUMP JUMPDEST PUSH0 PUSH2 0x1DA3 PUSH1 0x2D DUP4 PUSH2 0x13A7 JUMP JUMPDEST SWAP2 POP PUSH2 0x1DAE DUP3 PUSH2 0x1D49 JUMP JUMPDEST PUSH1 0x40 DUP3 ADD SWAP1 POP SWAP2 SWAP1 POP JUMP JUMPDEST PUSH0 PUSH1 0x20 DUP3 ADD SWAP1 POP DUP2 DUP2 SUB PUSH0 DUP4 ADD MSTORE PUSH2 0x1DD0 DUP2 PUSH2 0x1D97 JUMP JUMPDEST SWAP1 POP SWAP2 SWAP1 POP JUMP JUMPDEST PUSH0 PUSH1 0x20 DUP3 ADD SWAP1 POP DUP2 DUP2 SUB PUSH0 DUP4 ADD MSTORE PUSH2 0x1DEF DUP2 DUP5 PUSH2 0x13C5 JUMP JUMPDEST SWAP1 POP SWAP3 SWAP2 POP POP JUMP JUMPDEST PUSH32 0x4573746120766F746163616F206E616F2065737461206162657274612E000000 PUSH0 DUP3 ADD MSTORE POP JUMP JUMPDEST PUSH0 PUSH2 0x1E2B PUSH1 0x1D DUP4 PUSH2 0x13A7 JUMP JUMPDEST SWAP2 POP PUSH2 0x1E36 DUP3 PUSH2 0x1DF7 JUMP JUMPDEST PUSH1 0x20 DUP3 ADD SWAP1 POP SWAP2 SWAP1 POP JUMP JUMPDEST PUSH0 PUSH1 0x20 DUP3 ADD SWAP1 POP DUP2 DUP2 SUB PUSH0 DUP4 ADD MSTORE PUSH2 0x1E58 DUP2 PUSH2 0x1E1F JUMP JUMPDEST SWAP1 POP SWAP2 SWAP1 POP JUMP JUMPDEST PUSH32 0x566F6365206A6120766F746F75206E6573746120766F746163616F2E00000000 PUSH0 DUP3 ADD MSTORE POP JUMP JUMPDEST PUSH0 PUSH2 0x1E93 PUSH1 0x1C DUP4 PUSH2 0x13A7 JUMP JUMPDEST SWAP2 POP PUSH2 0x1E9E DUP3 PUSH2 0x1E5F JUMP JUMPDEST PUSH1 0x20 DUP3 ADD SWAP1 POP SWAP2 SWAP1 POP JUMP JUMPDEST PUSH0 PUSH1 0x20 DUP3 ADD SWAP1 POP DUP2 DUP2 SUB PUSH0 DUP4 ADD MSTORE PUSH2 0x1EC0 DUP2 PUSH2 0x1E87 JUMP JUMPDEST SWAP1 POP SWAP2 SWAP1 POP JUMP JUMPDEST PUSH32 0x43616E64696461746F20696E76616C69646F2E00000000000000000000000000 PUSH0 DUP3 ADD MSTORE POP JUMP JUMPDEST PUSH0 PUSH2 0x1EFB PUSH1 0x13 DUP4 PUSH2 0x13A7 JUMP JUMPDEST SWAP2 POP PUSH2 0x1F06 DUP3 PUSH2 0x1EC7 JUMP JUMPDEST PUSH1 0x20 DUP3 ADD SWAP1 POP SWAP2 SWAP1 POP JUMP JUMPDEST PUSH0 PUSH1 0x20 DUP3 ADD SWAP1 POP DUP2 DUP2 SUB PUSH0 DUP4 ADD MSTORE PUSH2 0x1F28 DUP2 PUSH2 0x1EEF JUMP JUMPDEST SWAP1 POP SWAP2 SWAP1 POP JUMP JUMPDEST PUSH0 PUSH2 0x1F39 DUP3 PUSH2 0x1115 JUMP JUMPDEST SWAP2 POP PUSH2 0x1F44 DUP4 PUSH2 0x1115 JUMP JUMPDEST SWAP3 POP DUP3 DUP3 SUB SWAP1 POP DUP2 DUP2 GT ISZERO PUSH2 0x1F5C JUMPI PUSH2 0x1F5B PUSH2 0x18FA JUMP JUMPDEST JUMPDEST SWAP3 SWAP2 POP POP JUMP JUMPDEST PUSH32 0x4E487B7100000000000000000000000000000000000000000000000000000000 PUSH0 MSTORE PUSH1 0x32 PUSH1 0x4 MSTORE PUSH1 0x24 PUSH0 REVERT INVALID LOG2 PUSH5 0x6970667358 0x22 SLT KECCAK256 0xBB JUMP PUSH13 0x39A722A29E7D0DF050BCC7F8E5 0xC1 0xB8 MSIZE LOG2 POP PUSH31 0xED599827AA0B4143514D64736F6C634300081E003300000000000000000000 "
		},
		"gasEstimates": {
			"creation": {
				"codeDepositCost": "1626600",
				"executionCost": "1706",
				"totalCost": "1628306"
			},
			"external": {
				"addCandidate(uint256,string)": "infinite",
				"candidates(uint256,uint256)": "infinite",
				"createPoll(string)": "infinite",
				"endVoting(uint256)": "33117",
				"getAllCandidates(uint256)": "infinite",
				"getVoterStatus(uint256,address)": "5299",
				"pollCount()": "2425",
				"polls(uint256)": "infinite",
				"startVoting(uint256)": "35222",
				"vote(uint256,uint256)": "infinite",
				"voters(uint256,address)": "3114"
			}
		},
		"methodIdentifiers": {
			"addCandidate(uint256,string)": "1750a3d0",
			"candidates(uint256,uint256)": "7de14242",
			"createPoll(string)": "74a9ced9",
			"endVoting(uint256)": "649f89a5",
			"getAllCandidates(uint256)": "f9ded646",
			"getVoterStatus(uint256,address)": "942f56bd",
			"pollCount()": "9207891d",
			"polls(uint256)": "ac2f0074",
			"startVoting(uint256)": "3d2f5bda",
			"vote(uint256,uint256)": "b384abef",
			"voters(uint256,address)": "9e319063"
		}
	},
	"abi": [
		{
			"anonymous": false,
			"inputs": [
				{
					"indexed": true,
					"internalType": "uint256",
					"name": "pollId",
					"type": "uint256"
				},
				{
					"indexed": true,
					"internalType": "address",
					"name": "creator",
					"type": "address"
				},
				{
					"indexed": false,
					"internalType": "string",
					"name": "title",
					"type": "string"
				}
			],
			"name": "PollCreated",
			"type": "event"
		},
		{
			"anonymous": false,
			"inputs": [
				{
					"indexed": true,
					"internalType": "uint256",
					"name": "pollId",
					"type": "uint256"
				},
				{
					"indexed": true,
					"internalType": "uint256",
					"name": "candidateId",
					"type": "uint256"
				},
				{
					"indexed": true,
					"internalType": "address",
					"name": "voter",
					"type": "address"
				}
			],
			"name": "Voted",
			"type": "event"
		},
		{
			"anonymous": false,
			"inputs": [
				{
					"indexed": true,
					"internalType": "uint256",
					"name": "pollId",
					"type": "uint256"
				},
				{
					"indexed": false,
					"internalType": "enum VotingPlatform.VotingState",
					"name": "newState",
					"type": "uint8"
				}
			],
			"name": "VotingStateChanged",
			"type": "event"
		},
		{
			"inputs": [
				{
					"internalType": "uint256",
					"name": "_pollId",
					"type": "uint256"
				},
				{
					"internalType": "string",
					"name": "_name",
					"type": "string"
				}
			],
			"name": "addCandidate",
			"outputs": [],
			"stateMutability": "nonpayable",
			"type": "function"
		},
		{
			"inputs": [
				{
					"internalType": "uint256",
					"name": "",
					"type": "uint256"
				},
				{
					"internalType": "uint256",
					"name": "",
					"type": "uint256"
				}
			],
			"name": "candidates",
			"outputs": [
				{
					"internalType": "uint256",
					"name": "id",
					"type": "uint256"
				},
				{
					"internalType": "string",
					"name": "name",
					"type": "string"
				},
				{
					"internalType": "uint256",
					"name": "voteCount",
					"type": "uint256"
				}
			],
			"stateMutability": "view",
			"type": "function"
		},
		{
			"inputs": [
				{
					"internalType": "string",
					"name": "_title",
					"type": "string"
				}
			],
			"name": "createPoll",
			"outputs": [],
			"stateMutability": "nonpayable",
			"type": "function"
		},
		{
			"inputs": [
				{
					"internalType": "uint256",
					"name": "_pollId",
					"type": "uint256"
				}
			],
			"name": "endVoting",
			"outputs": [],
			"stateMutability": "nonpayable",
			"type": "function"
		},
		{
			"inputs": [
				{
					"internalType": "uint256",
					"name": "_pollId",
					"type": "uint256"
				}
			],
			"name": "getAllCandidates",
			"outputs": [
				{
					"components": [
						{
							"internalType": "uint256",
							"name": "id",
							"type": "uint256"
						},
						{
							"internalType": "string",
							"name": "name",
							"type": "string"
						},
						{
							"internalType": "uint256",
							"name": "voteCount",
							"type": "uint256"
						}
					],
					"internalType": "struct VotingPlatform.Candidate[]",
					"name": "",
					"type": "tuple[]"
				}
			],
			"stateMutability": "view",
			"type": "function"
		},
		{
			"inputs": [
				{
					"internalType": "uint256",
					"name": "_pollId",
					"type": "uint256"
				},
				{
					"internalType": "address",
					"name": "_voter",
					"type": "address"
				}
			],
			"name": "getVoterStatus",
			"outputs": [
				{
					"internalType": "bool",
					"name": "",
					"type": "bool"
				}
			],
			"stateMutability": "view",
			"type": "function"
		},
		{
			"inputs": [],
			"name": "pollCount",
			"outputs": [
				{
					"internalType": "uint256",
					"name": "",
					"type": "uint256"
				}
			],
			"stateMutability": "view",
			"type": "function"
		},
		{
			"inputs": [
				{
					"internalType": "uint256",
					"name": "",
					"type": "uint256"
				}
			],
			"name": "polls",
			"outputs": [
				{
					"internalType": "uint256",
					"name": "id",
					"type": "uint256"
				},
				{
					"internalType": "address",
					"name": "creator",
					"type": "address"
				},
				{
					"internalType": "string",
					"name": "title",
					"type": "string"
				},
				{
					"internalType": "enum VotingPlatform.VotingState",
					"name": "state",
					"type": "uint8"
				},
				{
					"internalType": "uint256",
					"name": "candidateCount",
					"type": "uint256"
				}
			],
			"stateMutability": "view",
			"type": "function"
		},
		{
			"inputs": [
				{
					"internalType": "uint256",
					"name": "_pollId",
					"type": "uint256"
				}
			],
			"name": "startVoting",
			"outputs": [],
			"stateMutability": "nonpayable",
			"type": "function"
		},
		{
			"inputs": [
				{
					"internalType": "uint256",
					"name": "_pollId",
					"type": "uint256"
				},
				{
					"internalType": "uint256",
					"name": "_candidateId",
					"type": "uint256"
				}
			],
			"name": "vote",
			"outputs": [],
			"stateMutability": "nonpayable",
			"type": "function"
		},
		{
			"inputs": [
				{
					"internalType": "uint256",
					"name": "",
					"type": "uint256"
				},
				{
					"internalType": "address",
					"name": "",
					"type": "address"
				}
			],
			"name": "voters",
			"outputs": [
				{
					"internalType": "bool",
					"name": "",
					"type": "bool"
				}
			],
			"stateMutability": "view",
			"type": "function"
		}
	]
}